:020000040000FA
:0400000081EF00F09C
:10000800D900C100C100C1004000C1004000C100CA
:10001800C100C100C100C100C100C100C100C100D0
:10002800C100400040004000C100C100C100C10043
:10003800C100C100C100D2009300C100C100C100CD
:10004800C100C100C100C10040004000C100C100A2
:10005800C100C100C1004000C100C100C100C10011
:10006800C100C100C100C100C100C100C100C10080
:10007800C100C100C100C1004000C100C100C100F1
:10008800C100C100C100C100C100C100C100C10060
:10009800C100C100C100C1004000C10040004000D3
:1000A800C100C100C100C100C100C100C100C10040
:1000B800C100C100C100C100C100C100C100C10030
:1000C800C100C100C100C100C100C100C100C10020
:1000D800C100C100C100C100C100C100C100C10010
:1000E8004000C100C100C100400040004000400085
:1000F800C100C100C100C100FF0003EF01F080830F
:1001080086898C8F9295989B9EA2A5A7AAADB0B31D
:10011800B6B9BCBEC1C4C6C9CBCED0D3D5D7DADC3C
:10012800DEE0E2E4E6E8EAEBEDEEF0F1F3F4F5F612
:10013800F8F9FAFAFBFCFDFDFEFEFEFFFFFFFFFFEC
:10014800FFFFFEFEFEFDFDFCFBFAFAF9F8F6F5F4FA
:10015800F3F1F0EEEDEBEAE8E6E4E2E0DEDCDAD734
:10016800D5D3D0CECBC9C6C4C1BEBCB9B6B3B0AD69
:10017800AAA7A5A29E9B9895928F8C898683807C3E
:10018800797673706D6A6764615D5A5855524F4C41
:10019800494643413E3B393634312F2C2A28252302
:1001A800211F1D1B1917151412110F0E0C0B0A090C
:1001B8000706050504030202010101000000000012
:1001C80000000101010202030405050607090A0BE4
:1001D8000C0E0F1112141517191B1D1F212325288A
:1001E8002A2C2F313436393B3E414346494C4F5235
:1001F80055585A5D6164676A6D707376797C060E2E
:10020800F66E010EF76E000EF86E01EE00F210EEBB
:1002180000F10900F5C4EEF4E550E150FAE1E250CE
:10022800F8E101EE01F1110EEE6AE806FDE10401C4
:10023800080E5D6F000E5E6F000E5F6F00015DEFD0
:0202480001F0C3
:10024C0061003CF41DF3610038F41CF3000E0D2426
:10025C00D96EDA6A060EDA22DF5000017D6F040EC9
:10026C000D26B19810B03DEF01F03FEF01F042EFD9
:10027C0001F0A19803011E911100000E096E000EF1
:10028C000A6E000E0B6E000E0C6E000E056E000E4C
:10029C00066E000E076E000E086E7D0E0301236FB6
:1002AC00010E266FB196F00E246FA1861200118EEE
:1002BC00B5EC01F08FEC01F0ADEC01F043EC01F08A
:1002CC0073EC01F0119EB4EC01F0BE9E9AEC01F0BF
:1002DC00BE8E69EF01F081EF00F0C00EBE16900EDD
:1002EC0003011A6F540E1B6F000E1F6F010E216F4E
:0602FC00310E1E6F12001E
:10030400610060F312F5010E0126000E02220322A1
:100314000422610048F4D8F41100000E0401006FB7
:10032400000EC66EA00E00017F6F000E7D6F1200DE
:10033400118C11BCA0EF01F0A2EF01F09BEF01F0D2
:020344001200A5
:10034800B196119C010E0926000E0A220B220C22DE
:0A0358001100D68AD68ED68C120052
:08036400AE901100120012001E
:020000040020DA
:10000000FF0FFF0FFF0FFF0FFF0FFF0FFF0FFF0F80
:10001000FF0FFF0FFF0FFF0FFF0FFF0FFF0FFF0F70
:020000040030CA
:0A0000008CFEFFFC9FFFFFFFFFFFD7
:00000001FF
